:020000040800F2
:10000000000002209D070008E9070008E907000832
:10001000E9070008E9070008E907000800000000F8
:10002000000000000000000000000000E9070008D8
:10003000E907000800000000E9070008E9070008D8
:10004000E9070008E9070008E9070008E9070008D0
:10005000E9070008E9070008E9070008E9070008C0
:10006000E9070008E9070008E9070008E9070008B0
:10007000E9070008E9070008E9070008E9070008A0
:10008000E9070008E9070008E9070008E907000890
:10009000E9070008E9070008E9070008E907000880
:1000A000E9070008E9070008E9070008E907000870
:1000B000E9070008E9070008E9070008E907000860
:1000C000E9070008E9070008E9070008E907000850
:1000D000E9070008E9070008E9070008E907000840
:1000E000E9070008E9070008E9070008E907000830
:1000F000E9070008E9070008E9070008E907000820
:10010000E9070008E9070008E9070008E90700080F
:10011000E9070008E9070008E9070008E9070008FF
:10012000E9070008E9070008E9070008E9070008EF
:10013000E90700080000000000000000E9070008CF
:10014000E9070008E9070008E9070008E9070008CF
:10015000E9070008E9070008E9070008E9070008BF
:10016000E9070008E9070008E9070008E9070008AF
:10017000E9070008E9070008E90700080000000097
:1001800000000000E9070008000000000000000077
:10019000E90700080000000000000000E90700086F
:1001A000000000000000000000000000E907000857
:1001B000E9070008E9070008E9070008E90700085F
:1001C000E9070008044B05481B1A062B02D9044B0B
:1001D00003B11847704700BFFF020020FC02002057
:1001E0000000000005490648091A891001EBD17189
:1001F000491002D0034B03B118477047FC0200209E
:10020000FC0200200000000010B5064C237843B922
:10021000FFF7D8FF044B13B10448AFF3008001236C
:10022000237010BDFC020020000000009491010822
:1002300008B5084B1BB108490848AFF300800848CF
:10024000036813B9BDE80840CCE7064B002BF9D092
:100250009847F7E700000000000300209491010890
:10026000F802002000000000154B002B08BF134BC4
:100270009D46A3F5803A00218B460F461348144A49
:10028000121A12F06BFD0F4B002B00D098470E4B4B
:10029000002B00D098470020002104000D000D48DD
:1002A000002802D00C48AFF3008012F055FC20006B
:1002B000290000F03FFA12F04FF900BF00000800DB
:1002C000000002200000000000000000FC020020EE
:1002D000E0100020000000000000000000B585B024
:1002E00072B6052168460EF0B3F810E0039B019A40
:1002F0001A6096200EF0DCF99DF90030013310D021
:10030000019B039A1B04136096200EF0D1F99DF90E
:1003100000300133EAD10648064934220EF026F8AF
:10032000E4E70348034934220EF020F8E8E700BF71
:10033000A8770108C07701080F4A30B49368946821
:10034000B4F1006F1A4604D0103030BC42F82010CF
:1003500070470A4A03F5E27553F8044B42F8044F1C
:10036000AB42F9D14FF00052034B10309A6030BCD1
:1003700042F82010704700BF00ED00E0FCFFFF1FB7
:1003800070B50F4C2368DA68910715D4DA68520704
:1003900009D56FF004020B4E1A615D6A3368EB1ADF
:1003A000B3F57A7F00D270BD00F03AFA2368356069
:1003B00005F57A759D6370BD0EF05AF92368E5E77F
:1003C000C40F00201803002030B589B001A903A88C
:1003D00000F096FF00F068FF264B01901A6C264C47
:1003E000264942F008021A641A6C02F008020292CE
:1003F000029A1A6A42F008021A621A6A22F0080285
:100400001A62069B21604FF0FF32E2605BB31C4B27
:100410004000A3FB0030800C0138606000251648C6
:100420002561A560656101F053FD32201549FFF794
:1004300083FF154B10484FF480225A60294601F083
:10044000B3FC04210C4801F0AFFC23680F495A6A41
:100450000A6002F57A729A63DA68284642F004026A
:10046000DA6009B030BD064BA3FB0030800C1044AD
:100470006060D3E700380240C40F0020000C004049
:1004800083DE1B438103000800E100E01803002025
:1004900008B501F033FEBDE8084000F0A7B900BF81
:1004A000036870B51B690021012204469847431C6C
:1004B00006460ED0236820461B6900210222984779
:1004C0002368054631461B69204600229847284686
:1004D00070BD70BD0248022103220DF023BB00BF96
:1004E00084100020084B094A026010B403F58071A3
:1004F000002453F8042F824208BF1C608B42F8D1BD
:100500005DF8044B704700BF1803002050780108C5
:10051000F0B50E4685B03549054613F0B6FF20B953
:10052000334B1B6863B105B0F0BD2846314913F069
:10053000ACFF78B92E4B1B6843B1012005B0F0BD6C
:100540000190FFF7C7FF019805B0F0BDFFF7C2FFAC
:100550000120E8E72846284913F097FF10B3274BFE
:10056000002402E00134402C21D053F8042F002A4B
:10057000F8D12B783A2B32D0294602A80DF08AFC0C
:1005800002A80DF0DDFC90B102A80DF0BFFC88B10F
:1005900002A80DF0C5FC03464BB1194AE01C42F815
:1005A0002430C0E7124B1B68ABB10220BBE74FF011
:1005B000FF30B8E702A80DF099FC05460028F6D0F8
:1005C000036802A89F680DF08FFC3246014628465A
:1005D000B8470346E0E7FFF77DFF0220A3E7284680
:1005E000084902AA13F0E2FE029BD5E73078010821
:1005F000900E002040780108387801081803002088
:100600001C0300207478010802280ADDC31E074A73
:1006100052F82300002142F8231020B103685B68E0
:100620001847002070474FF0FF3070471C03002030
:10063000022812DC0E4B1B6870B50C4616460BB92F
:10064000FFF748FFA51936B114F8011B09480DF052
:100650004FFBAC42F8D1304670BD0338064B53F81F
:10066000200010B103681B6818474FF0FF30704737
:10067000900E0020841000201C03002002280DDCB6
:100680000C4B1B6810B50C460BB9FFF723FF0A484B
:100690000DF022FB01232070184610BD0338074BD4
:1006A00053F8200010B103689B6818474FF0FF33E0
:1006B00018467047900E0020841000201C03002074
:1006C000022807DD0338064B53F8200020B10368E9
:1006D000DB681847012070474FF0FF30704700BFBC
:1006E0001C030020022807DD0338064B53F82000C6
:1006F00020B103681B691847002070474FF0FF3096
:10070000704700BF1C030020022808B504D84FF42E
:1007100000534B60002008BD11F018FF092303604F
:100720004FF0FF3008BD00BF08B5012011F014FFE5
:10073000704700BF08B5FFF7ABFEFFF7F9FFBDE854
:10074000084002F09DBD00BF074A13681844EFF34C
:100750000881884202D2106018467047034B0C2271
:100760001A604FF0FF307047C8010020DC100020F5
:10077000074C08B523680546986812F00DF8236801
:10078000D86812F009F805B9FEE7FFF7A7FDFBE707
:1007900098020020002113F00ABD00BFDFF830D01E
:1007A000002103E00B4B5B58435004310A480B4BCC
:1007B00042189A42F6D30A4A02E0002342F8043B68
:1007C000084B9A42F9D301F09FFDFFF74DFD7047AA
:1007D00000000220A0910108C4010020FC020020BA
:1007E000FC020020E0100020FEE7000008B50B4BE3
:1007F0001A6842F400721A601A6842F480621A6041
:100800001A6842F480721A60032000F0F9F90F2090
:10081000FFF7DAFD00F006FA002008BD003C0240B8
:10082000024A136801331360704700BF1C040020A4
:10083000014B1868704700BF1C040020704700BFC0
:10084000002800F09A80F8B590F83D30044603F097
:10085000FF02002B00F08380494A4A4E022384F8AD
:100860003D305168236821F440315160506861681F
:10087000014351605F68E26A04F1080090E80340B8
:1008800027F480775F605D6845EA0E255D605D68EE
:1008900025F040755D605D6828435860986820F4D5
:1008A000006098609868B24241EA000199605BD0AC
:1008B0009868216B20F070609860986802439A6095
:1008C0009A6822F040529A609A680A439A6099683E
:1008D000A569606A21F0020199609A6842EA4502BE
:1008E0009A605A6838BB22F400625A60D96A206A5A
:1008F000E769666921F47001D962DD6A013845EA69
:100900000050D862986820F4007098609A6842EAB3
:1009100047229A609A6822F480629A60996800225D
:1009200041EA8621012599601046226484F83C2022
:1009300084F83D50F8BD42F400625A605A6822F4CF
:1009400060425A604FF4604191FAA1F1A26A58687E
:10095000B1FA81F1013A8A4002435A60C6E780F851
:100960003C20FFF76BFF77E79A6822F070629A608D
:100970009A6822F040529A60A9E70120704700BFB0
:10098000002301400100000F10B490F83C3083B008
:100990000022012B019240D090F83D300122222B01
:1009A0000CBF3223122380F83C20026880F83D30CF
:1009B0009368DB0714D4204B204C1B689168A4FB80
:1009C00003439B0C03EB430341F00101916001934E
:1009D000019B2BB1019B013B0193019B002BF9D1A2
:1009E000174B5968002380F83C3011F01F000CD1E0
:1009F000936813F040530CD19168184641F0804140
:100A0000916003B05DF8044B70470E498A4209D0EB
:100A1000184603B05DF8044B7047022003B05DF840
:100A2000044B7047906810F04050F1D1936843F048
:100A300080439360EDE700BFCC01002083DE1B43C1
:100A4000002301400020014003689A6870B55505F5
:100A500002D59B68DC0522D40C460546FFF7E8FE6C
:100A600006462A6801E0611C0CD113689B07FAD581
:100A700095F83D30252B0CBF3523152385F83D30E7
:100A8000002070BD24B1FFF7D3FE801B8442E8D262
:100A90000320002385F83D0085F83C3070BD04221A
:100AA000002380F83D2080F83C30012070BD00BF5D
:100AB0000368D86C704700BFF0B590F83C3083B045
:100AC0000022012B019255D00D680123092D2C46DF
:100AD00080F83C3028D803688A681F6905EB450E0A
:100AE000072606FA0EF627EA06061E611E6902FAB6
:100AF0000EF232431A614A68062A2BD802EB8202B0
:100B00005E6B053A1F21914026EA01015963596B3A
:100B100094400C435C63354A93423AD0002380F8FA
:100B20003C30184603B0F0BD03688F68DE68ACB295
:100B300004EB44021E3A4FF0070E0EFA02FE26EABC
:100B40000E06DE60DE6807FA02F23243DA604A68B7
:100B5000062AD3D90C2A02EB82020ED81E6B233A46
:100B60001F21914026EA01011963196B94400C433F
:100B70001C63D0E7022003B0F0BDDE6A413A1F21BA
:100B8000914026EA0101D962D96A94400C43DC62A3
:100B9000C1E7122D23D0164B9D4207D0112DBDD198
:100BA000144A536843F400035360B7E71149124BEA
:100BB0004A68124C42F400024A601B68A4FB0323FB
:100BC0009B0C03EB83035B000193019B002BA5D0DF
:100BD000019B013B0193019B002BF9D19EE7D2F8C9
:100BE000043343F48003C2F8043397E70020014044
:100BF0001200001000230140CC01002083DE1B43C3
:100C0000074AD1684FF6FF030B4043F0BF6300F083
:100C1000070043F4003343EA0023D360704700BF6A
:100C200000ED00E0704700BF2DE9F04FDFF81CC277
:100C3000DFF81CE20F687E4E85B0002303E001332D
:100C4000102B00F0988001229A4002EA0704944297
:100C5000F5D14D6825F0100ABAF1020F00F08E8030
:100C60004FEA43090322D0F800B002FA09F2D24356
:100C700005F0030802EA0B0B08FA09F80AF1FF3A3B
:100C80004BEA0808BAF1010F0192C0F8008040F267
:100C90009F80D0F80C80019A02EA080A8A6802FA5A
:100CA00009F84AEA0802C260EA00C8D5DEF8442022
:100CB00042F48042CEF84420DEF8442023F00309B9
:100CC00009F1804902F4804209F59C39039203F04E
:100CD000030A039AD9F808804FEA8A0A0F2202FA17
:100CE0000AF2604528EA020800F08B80514A9042DF
:100CF00000F08980504A904200F089804F4A90422B
:100D000000F089804E4A904200F089804D4A90421E
:100D100000F089804C4A90420CBF0622082202FA59
:100D20000AF242EA0802C9F8082032686FEA0408A9
:100D300015F4803F14BF224308EA02023260726851
:100D400015F4003F14BF224308EA02027260B26841
:100D500015F4801F14BF224308EA0202B260F26851
:100D6000AD0203F1010354BF08EA02041443102B3F
:100D7000F4607FF468AF05B0BDE8F08F4FEAD309A7
:100D800000EB890903F00708D9F820204FEA88080A
:100D90004FF00F0A0AFA08FA22EA0A0A0A6902FA66
:100DA00008F24AEA0202C9F820204FEA4309032266
:100DB000D0F800A002FA09F2D24305F0030802EAD3
:100DC0000A0A08FA09F84AEA08080192C0F80080FD
:100DD000D0F80880019A02EA080ACA6802FA09F8FB
:100DE0004AEA0808C0F80880D0F804A0C5F3001843
:100DF0002AEA040A08FA03F84AEA0808C0F8048054
:100E000047E700228DE7012202FA0AF289E702226F
:100E100002FA0AF285E7032202FA0AF281E70422C3
:100E200002FA0AF27DE7052202FA0AF279E700BF28
:100E3000003C01400004024000080240000C024057
:100E4000001002400014024000180240000002405E
:100E500000380240704700BF002869D0F8B590F80C
:100E60003530044603F0FF02002B4CD02268314D90
:100E7000022384F83530136823F00103136000F077
:100E800013FA2D4A61682368A2FB0062920CA94202
:100E90005A6023D84900B0FBF1F0C0F30B010132D6
:100EA00003291A6298BF042004F1100146C9E569BC
:100EB000D4F820E0E768D86139434EEA05003243B0
:100EC00018609960DA601A68002142F00102012579
:100ED0001A600846A16384F83550F8BD4FF4967542
:100EE000164FA66805FB02F2A7FB025292090132D7
:100EF0001A626EB901EB4101B0FBF1F0C0F30B02D5
:100F00009AB90120D0E780F83420FFF7A3FFADE7BE
:100F100001EB810101EB8101B0FBF1F0C0F30B02A9
:100F2000002AEED040F44040BEE740F40040BBE76A
:100F300001207047A086010083DE1B43D34D621061
:100F4000234B30B51A6C42F080521A641B6C83B08C
:100F500003F080530193019B4FF4803393FAA3F382
:100F6000B3FA83F39B0003F1844303F5602301226A
:100F70001A60FFF75DFC174C054605E0FFF758FCCB
:100F8000401BB0F57A7F20D86368DA03F6D54FF4BA
:100F9000003393FAA3F3B3FA83F39B0003F1844382
:100FA00003F5602301221A60FFF742FC094C054655
:100FB00005E0FFF73DFC401BB0F57A7F05D863687C
:100FC0009B03F6D5002003B030BD032003B030BD35
:100FD00000380240007000407C4A136803F00F03A1
:100FE0008B422DE9F0410C46054609D2CBB2137075
:100FF000136803F00F038B4258D00120BDE8F08145
:1010000003689A0706D57248AA68816821F0F00142
:101010000A438260DF0727D56B68012B79D09A1EBF
:10102000012A6B4A126840F287809107E5D5684E25
:10103000B26822F003021343B360FFF7F9FB6B6859
:10104000012B07467CD0022B00F08880032B65D053
:1010500041F2883804E0FFF7EBFBC01B404565D840
:10106000B36813F00C0FF6D1584BE2B21A701B683C
:1010700003F00F03A342C0D12B685A0706D554488A
:10108000EA68816821F4E0510A4382601B0707D5B2
:101090004F4A2969936823F4604343EAC10393608C
:1010A0000F20FFF791F90020BDE8F08103689F074A
:1010B00006D54748AA68816821F0F0010A4382609A
:1010C000DE07DAD56B68012B56D09A1E012A404AFA
:1010D00012682ED9910790D53D4CA26822F00302E8
:1010E0001343A360FFF7A4FB6B68012B064648D0AF
:1010F000022B54D0032B60D041F2883704E0FFF775
:1011000097FB801BB84211D8A36813F00C0FF6D1DF
:10111000B2E72F4A1268960389D46EE741F2883409
:10112000B368FFF785FBC01BA042F9D90320BDE8D7
:10113000F0819001D0D460E790013FF578AF5CE793
:1011400041F2883804E0FFF773FBC01B4045EDD83F
:10115000B36803F00C03042BF5D185E741F288381E
:1011600004E0FFF765FBC01B4045DFD8B36803F020
:101170000C03082BF5D177E7154A12689403ABD41A
:101180003BE741F2883704E0FFF752FB801BB8428F
:10119000CCD8A36803F00C03042BF5D16CE741F223
:1011A000883704E0FFF744FB801BB842BED8A36831
:1011B00003F00C03082BF5D15EE741F28835A368F4
:1011C000FFF736FB801BA842F9D9AFE7003C02408D
:1011D00000380240F0B5034689B00D461646224C51
:1011E00008B3236B214843F004032363236B03F00C
:1011F000040302934FF4007E00230322022703A975
:10120000069205930793DDF808C0CDF80CE004972B
:10121000FFF70AFDA36845EAC60223F078431A43A4
:10122000A26009B0F0BD226B114842F001022263B6
:10123000226B059302F0010201924FF4807E03229B
:10124000022703A907930692DDF804C0CDF80CE04D
:101250000497FFF7E9FCA36823F0EC6346EA030276
:101260001543A56009B0F0BD0038024000080240F7
:101270000000024010B500F025FD084BF0229B68ED
:1012800092FAA2F203F0F003B2FA82F2044C05499A
:10129000D340E35CD840086010BD00BF0038024076
:1012A00084780108CC01002008B5FFF7E3FF074B65
:1012B0004FF4E0529B6892FAA2F203F4E053B2FAC0
:1012C00082F20349D340CB5CD84008BD00380240CD
:1012D0008478010808B5FFF7CDFF074B4FF4604253
:1012E0009B6892FAA2F203F46043B2FA82F20349D5
:1012F000D340CB5CD84008BD003802408478010858
:101300000E4B0F2202609A6802F0030242609A6854
:1013100002F0F00282609A6802F4E052C2609B68B8
:1013200003F4604310B4DB08054C036123685DF8E7
:10133000044B03F00F030B60704700BF00380240FE
:10134000003C02402DE9F04F036813F0010683B022
:1013500004460BD0AE48A26BD0F88C10B2FA82F6DD
:1013600021F0C0610A43C0F88C2076099A070BD59A
:10137000A749E06BD1F88C2022F0C052024300282C
:10138000C1F88C2008BF012613F0040510D0A04935
:10139000256BD1F88C2022F440122A43B5F5801F2A
:1013A000C1F88C2015BFB5FA85F500256D09012619
:1013B0001F070FD59648616BD0F88C2022F44002AD
:1013C0000A43B1F5800FC0F88C2000F05A81002943
:1013D00008BF0125980600F107812368DF0604D5C0
:1013E0008C4B94F858201A602368180608D5884852
:1013F000E26CD0F8941021F440010A43C0F8942024
:10140000590608D58248A26CD0F8941021F080616A
:101410000A43C0F89420DA050CD57D49606DD1F8F7
:10142000942022F000620243B0F1006FC1F89420D2
:1014300008BF01259F0508D57548626CD0F8941047
:1014400021F080510A43C0F8942058050BD4012E96
:1014500015D0B3F5006F12D0012D00F014810020DB
:1014600003B0BDE8F08F6A48216DD0F8942022F0D7
:1014700000520A43B1F1005FC0F89420E7D1664BF7
:10148000634E00221A60FFF7D3F9074605E0FFF725
:10149000CFF9C01B642800F2A38033681901F6D489
:1014A0002168CA0740F15581A36B002B40F05181A0
:1014B000574F4FF4403ED7F884209EFAAEF34FF0DA
:1014C000706CB3FA83F3D7F884009CFAACF847F653
:1014D000C079B8FA88F899FAA9F9B9FA89F99EFA9F
:1014E000AEFEBEFA8EFE9CFAACFC4FF0E04ABCFAAF
:1014F0008CFC9AFAAAFA6669BAFA8AFA02F44032BD
:10150000DA4006FA0AF3A668013206FA09F900F091
:101510007060666822F0004220FA08F049EA030889
:1015200000FA0CF0531E48EA060603FA0EF246EAE9
:1015300000031343C7F884304F0704D5236BB3F57A
:10154000801F00F01D810E0704D5636BB3F5800F7B
:1015500000F01681480504D5236DB3F1005F00F05B
:101560005C810A052CD547F6C07898FAA8F84FF4A4
:10157000403CB8FA88F89CFAACFC4FF0706EBCFAAC
:101580008CFC9EFAAEFE4FF0E047BEFA8EFE97FA54
:10159000A7F7E268A368666820696169B7FA87F708
:1015A0005208013A02FA0CF203FA08F313433343E8
:1015B00000FA0EF00343B940154A1943C2F88410EB
:1015C000154B134E01221A60FFF732F907463368B4
:1015D0001B013FF541AFFFF72BF9C01B6428F6D97B
:1015E000032003B0BDE8F08F094B0C4F1A6C42F09A
:1015F00080521A641B6C03F080530193019B3B687B
:1016000043F480733B60FFF713F980460EE000BFA0
:1016100000380240E0114742680047420070004035
:10162000FFF706F9C8EB00006428D9D83B68D90554
:10163000F6D5BA4B226C196F4A4012F4407F3FF442
:10164000CCAE1A6FB64922F440704FF0010E00275D
:101650009207C1F800E00F60186700F12281236C47
:1016600003F44072B2F5407F7FD0AC498A6822F41F
:10167000F8128A60A9490A6FC3F30B0313430B677F
:10168000ABE60126A6E6A74BA44D00221A60FFF7A1
:10169000CFF8064604E0FFF7CBF8801B64289FD8FC
:1016A0002B689F00F7D4226850075AD4110737D50A
:1016B000636BABBB994E4FF44031D6F8883091FA4A
:1016C000A1F047F6C077B0FA80F097FAA7F7B7FA1B
:1016D00087F791FAA1F14FF0706EB1FA81F19EFA9D
:1016E000AEFE03F44033E569BEFA8EFEC340606A85
:1016F0000133BD4023F00043A76900FA0EF0013B1F
:1017000028438B4038430343C6F88830D6F88C30E2
:10171000E16A23F4F853013943EA0123C6F88C3017
:10172000D20504D5636DB3F1006F00F0C9807D4B25
:101730007A4C01221A60FFF77BF8054605E0FFF7B7
:1017400077F8401B64283FF64BAF23689B00F6D523
:1017500085E68B077FF5F0AEE36B002B7FF4ECAEF4
:10176000A6E6236B002BA5D0A0E76C48826823F087
:10177000704122F4F81221F440710A43826079E743
:10178000664E4FF44030D6F8843090FAA0FB4FF00C
:10179000E04CBBFA8BFBD6F884209CFAACF847F6F9
:1017A000C07AB8FA88F89AFAAAFABAFA8AFA90FAD3
:1017B000A0F04FF07069B0FA80FE99FAA9F9B9FA71
:1017C00089F99CFAACFC2069A768BCFA8CFC03F48C
:1017D000403323FA0BF300FA09F90133606802F091
:1017E000E04207FA0AF723F0004322FA08F247EA38
:1017F0000907013B02FA0CF23843024303FA0EF3E5
:101800001343C6F88430D6F88C30A26A23F01F0345
:10181000013A1343C6F88C309CE6DFF800814FF4A0
:101820004036D8F8843096FAA6FB4FF0E040BBFA79
:101830008BFBD8F8842090FAA0FA47F6C079BAFA60
:101840008AFA99FAA9F9B9FA89F996FAA6F64FF03F
:10185000706CB6FA86FE9CFAACFCBCFA8CFC90FA72
:10186000A0F6E068A768B6FA86F64008013803F4E7
:10187000403300FA0EFE23FA0BF3606802F0E042F8
:1018800007FA09F7013322FA0AF247EA0E075B006A
:10189000B240074303FA0CF33A431343C8F88430C9
:1018A0005FE61F46FEF7C4FF80463B6F9B073FF590
:1018B000D6AEFEF7BDFFC8EB00006428F5D98FE671
:1018C00016484FF07062D0F8883092FAA2F747F6C7
:1018D000C071B7FA87F791FAA1F14FF4403EB1FA1F
:1018E00081F19EFAAEFEBEFA8EFE92FAA2F5226A4F
:1018F000D4F81CC0A669B5FA85F45208013A03F081
:1019000070630CFA01F102FA0EF2FB400A43A340A5
:1019100032431343C0F8883009E700BF0038024063
:10192000400E4742700047422DE9F0430368DD074F
:1019300083B004463AD5AB498A6802F00C02042A07
:1019400000F00A818A6802F00C02082A00F0008187
:10195000A4498A6802F00C020C2A00F01A81A24BFA
:10196000A04D00221A70FEF763FF064605E0FEF761
:101970005FFF801BC82800F2CB802B689F03F6D442
:10198000994B22791A706368002B00F01881FEF7DA
:101990004FFF944D064605E0FEF74AFF801BC8281E
:1019A00000F2B6802B689803F6D523689A0735D5E0
:1019B0008C4A916811F00C0F00F0B280916801F030
:1019C0000C01082900F0A88086498A6802F00C0200
:1019D0000C2A00F05F81E368002B00F0DF80834B6E
:1019E000804D01221A60FEF723FF064605E0FEF750
:1019F0001FFF801B642800F28B802B68794A9807B0
:101A0000F5D51168F82090FAA0F02369B0FA80F0BB
:101A100021F0F80183400B43136023681A0722D496
:101A2000590737D4A269D2B16E4B996801F00C0105
:101A3000082900F09A80022A6D4A4FF000011160D7
:101A400000F0CB801C46FEF7F3FE054604E0FEF7EF
:101A5000EFFE401B64285BD823689B01F7D400206D
:101A600003B0BDE8F0836369002B00F08280614B16
:101A70005C4D01221A60FEF7DBFE064604E0FEF72D
:101A8000D7FE801B642843D86B6F9F07F7D5236868
:101A90005907C7D5534B584D1A6C42F080521A64FF
:101AA0001B6C03F080530193019B2B6843F48073FC
:101AB0002B60FEF7BDFE064604E0FEF7B9FE801B74
:101AC000642825D82B68DA05F7D54C4B454D002204
:101AD0001A70FEF7ADFE064604E0FEF7A9FE801B75
:101AE000642815D82B6F9B07F7D4444B227A1A70C1
:101AF000A368002B00F0D380FEF79AFE394D06460E
:101B00002B6F9F078ED4FEF793FE801B6428F7D9B6
:101B1000032003B0BDE8F083526857023FF554AF8D
:101B2000304A1268950702D5E268012A1DD12D4D71
:101B3000F820296890FAA0F02269B0FA80F021F02C
:101B4000F80182400A432A601A077FF569AF8AE7E5
:101B50004A6850027FF5FCAE224A126892037FF574
:101B600025AF6268002A7FF421AF012003B0BDE8F1
:101B7000F083204A1B4D1360FEF75AFE064604E030
:101B8000FEF756FE801B6428C2D86B6F9807F7D407
:101B90007DE74A6851027FF5E2AEDDE7134A114D59
:101BA0001360FEF745FE064604E0FEF741FE801B8B
:101BB0006428ADD82B689907F7D423682EE7FEF781
:101BC00037FE084D064604E0FEF732FE801BC828AB
:101BD0009ED82B689903F7D4E7E61D46FEF728FE4A
:101BE000064612E000380240023802400000474238
:101BF00060004742800E474200700040703802404B
:101C0000FEF716FE801B642882D82B682B4A9901A8
:101C1000F6D447F6C07E9EFAAEFE4FF44037BEFAC9
:101C20008EFE97FAA7F74FF07065B7FA87F795FA27
:101C3000A5F54FF0E049B5FA85F599FAA9F9A36A37
:101C4000666AD4F82080D4F81CC0E06A216BB9FA27
:101C500089F45B0806FA0EF6013B48EA0C0E4EEAE0
:101C60000606BB40A8403343A140034314480B433E
:101C70000121536001601446FEF7DAFD054605E0D8
:101C8000FEF7D6FD401B64283FF642AF23689A0159
:101C9000F6D5E4E64A6856023FF59DAE40E7FEF70A
:101CA000C7FD064D06462B6F98077FF5BBAEFEF7C6
:101CB000BFFD801B6428F6D92AE700BF0038024028
:101CC000600047423449886800F00C00082830B4AE
:101CD00009D00C2834D0314B314A30BC04280CBF19
:101CE0001846104670474A684D6802F03F0447F6B0
:101CF000C0734A68680293FAA3F347F6C07000EA1B
:101D000002004ABF2549264AB1FBF4F22249B3FA40
:101D100083F320FA03F058BFB2FBF4F202FB00F3A6
:101D20004FF44032486892FAA2F200F44030B2FA1E
:101D300082F2D0400130400030BCB3FBF0F070477D
:101D40004A684D6802F03F0447F6C0734A6869026A
:101D500093FAA3F347F6C07000EA02004ABF0F49A6
:101D60000F4AB1FBF4F20C49B3FA83F320FA03F003
:101D700058BFB2FBF4F202FB00F34FF0E0424868B8
:101D800092FAA2F200F0E040B2FA82F230BCD04007
:101D9000B3FBF0F0704700BF0038024000127A0039
:101DA0000024F400704700BF03680122186A8A40CB
:101DB00020EA020010B41862196A0A4C0A43A342CE
:101DC0001A620AD0084A934207D01A685DF8044B99
:101DD00042F0010200201A6070475A6C42F400423F
:101DE0005A64F2E70000014000040140364A0368EB
:101DF000904270B454D0B0F1804F30D0A2F57C4204
:101E000090422CD002F58062904228D002F5806288
:101E1000904224D002F57842904220D002F57052D0
:101E2000904230D002F5806290422CD002F5806260
:101E3000904228D0A2F59832904224D002F58062D8
:101E4000904220D002F5806290421CD08C680A68D3
:101E500003600123C462826270BC436170474A68B8
:101E60001A4C8E680D6823F070031343CA6823F47C
:101E700040731343A0420360C66285621DD00123F4
:101E8000436170BC7047CA688C68096823F440736A
:101E9000134303600123C462816270BC43617047D5
:101EA0004A68CC688E680D6823F070031A4322F4E8
:101EB000407222430260C66285620B69036301239C
:101EC000436170BC704700BF000001400004014046
:101ED000C0B190F8393010B503F0FF02044663B189
:101EE0002146022351F8040B84F83930FFF77EFFB6
:101EF000012384F83930002010BD80F83820FFF726
:101F000051FFEDE7012070472DE9F0410468C768F3
:101F10002369C569D0F810C08268416923F4405E26
:101F20004EEA0707064680692761E3684CEA020229
:101F300023F416430A4323F00C032A431343E360BC
:101F4000636923F440730343B5F5004F6361514B5C
:101F500039D09C4200F0818003F580639C427CD0A4
:101F6000FFF7A2F975684C4F00EB800000EB800092
:101F7000AD00B0FBF5F5FFF797F9A7FB05357268E3
:101F80006D0900EB800000EB800092002D01B0FB9A
:101F9000F2F8FFF789F9716800EB800000EB800030
:101FA0008900B0FBF1F1A7FB01314909642202FB72
:101FB000118212013232A7FB0223C3F343132B43D6
:101FC000A360BDE8F0819C4225D003F580639C426C
:101FD00021D0FFF769F975682F4F00EB800000EB07
:101FE00080006D00B0FBF5F5FFF75EF9726800EB5D
:101FF000800000EB80005200B0FBF2F8FFF754F9CC
:10200000A7FB053571686D0900EB80002D0100EB21
:1020100080004900C5E7FFF75DF975681E4F00EBCA
:10202000800000EB80006D00B0FBF5F5FFF752F982
:10203000726800EB800000EB80005200B0FBF2F809
:10204000FFF748F9A7FB053571686D0900EB8000C3
:102050002D0100EB80004900A3E7FFF73BF975680D
:102060000D4F00EB800000EB8000AD00B0FBF5F5FC
:10207000FFF730F9A7FB053572686D0900EB8000AA
:1020800092002D0100EB8000B0FBF2F8FFF722F97F
:1020900081E700BF001001401F85EB51704700BF72
:1020A00050B338B590F83930044603F0FF02F3B16D
:1020B0002268022384F83930D36823F40053D360B4
:1020C0002046FFF721FF23681A6922F490421A6123
:1020D0005A6922F02A025A61DA68002142F4005259
:1020E0000125DA600846E16384F8395038BD80F88C
:1020F0003820FFF7D3FFDBE70120704718488368DB
:1021000003F00C03042B29D0082B0AD0154B144ADA
:10211000154892681549C2F30312825CD3400B60E4
:1021200070474368416813F4800F436818BF104834
:1021300001F03F020CBF0B49B0FBF2F1C3F388136F
:1021400008BFB1FBF2F101FB03F2054B5B68C3F37F
:10215000014301335B00B2FBF3F3D8E7044BD6E74E
:10216000003802400024F40094780108CC010020DB
:1021700000127A00324A334B116C2DE9F04141F0E4
:1021800080511164126CACB002F080520192019A3D
:102190001A6842F440421A601B6803F440430293F9
:1021A0000123029A0893804600B105230224099373
:1021B0004FF4800708264FF4B472072308A80E9442
:1021C000129414940F97109611921393FFF7ACFB8F
:1021D00018B100202CB0BDE8F081FEF7B1FE054635
:1021E0000028F6D14FF4C0714FF480724FF00063B5
:1021F00015A81B961D961C9115922A930F26FFF782
:10220000A1F84FF4A0524FF4805303A80521069281
:102210000494059503960793FEF7DEFE024638B94F
:102220003946B8F1000F05D0FEF7D4FF0120D1E701
:102230002846CFE74FF08062FEF7CCFF0120C9E7C8
:102240000038024000700040244A254B116CF0B564
:1022500041F080511164126C95B002F080520092EE
:10226000009A1A6842F440421A601B6803F4404323
:10227000019303261023002402254FF4B471062293
:10228000012707A80796DDF804E00A9708940E9442
:102290000B930F930D95119510911292FFF744FB3C
:1022A000064610B1204615B0F0BD4FF4A0524FF4D1
:1022B000805305210F2402A80395049602940592E9
:1022C0000693FEF789FE014610B1304615B0F0BD09
:1022D0000246FEF77FFF384615B0F0BD00380240D9
:1022E0000070004008B50120FFF744FF18B9FFF760
:1022F000ABFF00B9FEE7012000214FF0C062BDE84E
:102300000840FEF767BF00BF174A1848D2F8883068
:1023100070B543F47003164CC2F888302368154E2C
:10232000154D002143F001032360A160236823F0D1
:10233000847323F480332360666023684FF0006663
:1023400023F480232360E16096600560FEF74EFA77
:10235000FFF7C8FF236A43F008032362236A23F0D0
:102360000803236270BD00BF00ED00E0CC01002037
:10237000003802401030002480A8120180B582B0DD
:1023800000AF78607B681B785BB2B3F1FF3F04D18C
:102390003E22094909480BF0E9FF7B689B681A68EF
:1023A0007B685B681340002B01D0012300E0002311
:1023B00018460837BD4680BDA47801082479010875
:1023C00080B582B000AF78607B681846FFF7D6FF13
:1023D000034618460837BD4680BD00BF80B500AF34
:1023E000024802F077FE00BF80BD00BFD00500208C
:1023F00080B500AF0C4B1B78002B09D100220621C1
:102400000A4802F07DFE0A4908480BF06BFF08E01D
:1024100000220621054802F073FE064903480BF02E
:1024200061FF00BF80BD00BFD70A0020D00500209B
:102430003C7901084079010880B500AF00220121F4
:10244000044802F05DFE044902480BF04BFF00BF58
:1024500080BD00BFD00500204479010880B500AFE1
:1024600000220121044802F04BFE044902480BF00F
:1024700039FF00BF80BD00BFD0050020547901089E
:1024800080B500AFFFF7AAFF00220121044802F047
:1024900037FE044902480BF025FF00BF80BD00BF96
:1024A000D00500206079010880B582B000AF00221D
:1024B0000821334802F024FEFFF790FF314800F076
:1024C00083FB03461B78463B0D2B49D801A252F8EB
:1024D00023F000BF252500084F2500081F25000810
:1024E000492500080D250008372500081325000898
:1024F0003D25000819250008432500082B25000864
:1025000055250008312500085B2500081E4B7B601F
:1025100029E01E4B7B6026E01D4B7B6023E01D4BBA
:102520007B6020E01C4B7B601DE01C4B7B601AE055
:102530001B4B7B6017E01B4B7B6014E01A4B7B60EE
:1025400011E01A4B7B600EE0194B7B600BE0194BDE
:102550007B6008E0184B7B6005E0184B7B6002E075
:10256000174B7B6000BF796805480BF0BBFE7968AC
:1025700014480BF0B7FE00BF0837BD4680BD00BF52
:10258000D0050020F00A0020707901087879010850
:102590008079010888790108907901089879010803
:1025A000A0790108A8790108B0790108B879010873
:1025B000C0790108C8790108D0790108D8790108E3
:1025C000E0790108B805002080B500AF00220F2196
:1025D000144802F095FD02F0E5FE134B1B785A2BD0
:1025E00004D112490F480BF07DFE19E00E4B1B7809
:1025F0005B2B04D10E490B480BF074FE10E00A4B24
:102600001B785C2B04D10B4906480BF06BFE07E0EE
:10261000054B1B785D2B03D1074902480BF062FE86
:1026200000BF80BDD0050020FD0A0020207A0108EF
:10263000247A01083C790108287A010880B500AFA6
:10264000054B1B781A46054B1B78054905480BF0CE
:1026500049FE00BF80BD00BFD80A0020D90A002073
:102660002C7A0108B805002080B500AFFFF7B6FE50
:1026700000220021044802F043FD044902480BF007
:1026800031FE00BF80BD00BFD0050020447A0108A4
:1026900080B500AFFFF7A2FE00220021084802F03B
:1026A0002FFD084906480BF01DFE012200210448B9
:1026B00002F026FD044902480BF014FE00BF80BD65
:1026C000D00500204C7A01085C7A010880B500AF83
:1026D000FFF784FE00220021044802F011FD0449A6
:1026E00002480BF0FFFD00BF80BD00BFD0050020F9
:1026F0006C7A010880B500AFFFF770FE0022002160
:10270000044802F0FDFC044902480BF0EBFD00BF59
:1027100080BD00BFD0050020747A010880B500AFED
:10272000FFF75CFE00220021044802F0E9FC0449A6
:1027300002480BF0D7FD00BF80BD00BFD0050020D0
:102740007C7A010880B582B000AF7860FFF746FE62
:1027500007480BF09FFF00220021064802F0D0FC42
:10276000796804480BF0BEFD00BF0837BD4680BD48
:10277000CDCCCC3DD005002080B500AF09490A483A
:102780000BF0B0FD094B1B78002B04D1084906481B
:102790000BF0A8FD03E0074903480BF0A3FD00BFC1
:1027A00080BD00BF847A0108B8050020D70A002048
:1027B000907A0108987A010880B500AF044B1B8815
:1027C0001A46044904480BF08DFD00BF80BD00BFD0
:1027D000D00A00209C7A0108B8050020F0B583B02B
:1027E00002AF0C4B1B781D460B4B1B781E460B4B48
:1027F0001B781C460A48FFF7E3FD0346019300944B
:1028000033462A46074908480BF06CFD00BF0437E1
:10281000BD46F0BDD20A0020D40A0020D30A002011
:1028200094090020A87A0108B805002080B582B07C
:1028300000AF674967480BF055FD674965480BF0E5
:1028400051FD0123FB71FB79082B13D8FB799BB257
:1028500001339BB29BB21BB21946604804F0BAF92F
:1028600003461A465E495B480BF03CFDFB79013399
:10287000FB71E8E75B4957480BF034FD5A4955486E
:102880000BF030FD0123BB71BB79082B13D8BB794A
:102890009BB201339BB29BB21BB21946534804F062
:1028A00099F903461A464E494A480BF01BFDBB797D
:1028B0000133BB71E8E74B4946480BF013FD4C4927
:1028C00044480BF00FFD01237B717B79082B13D853
:1028D0007B799BB201339BB29BB21BB21946454830
:1028E00004F078F903461A463D493A480BF0FAFCE1
:1028F0007B7901337B71E8E73A4936480BF0F2FC0B
:102900003D4934480BF0EEFC01233B713B79082B29
:1029100013D83B799BB201339BB29BB21BB21946D1
:10292000364804F057F903461A462D4929480BF05A
:10293000D9FC3B7901333B71E8E72A4925480BF084
:10294000D1FC2F4923480BF0CDFC0123FB70FB7811
:10295000082B13D8FB789BB201339BB29BB21BB2FE
:102960001946284804F036F903461A461C49194806
:102970000BF0B8FCFB780133FB70E8E71949154808
:102980000BF0B0FC204913480BF0ACFC0123BB70EA
:10299000BB78082B13D8BB789BB201339BB29BB298
:1029A0001BB21946194804F015F903461A460C499A
:1029B00008480BF097FCBB780133BB70E8E714497B
:1029C00004480BF08FFC00BF0837BD4680BD00BF38
:1029D000107B0108B80500202C7B0108840700202B
:1029E000007B0108387B01083C7B0108DC070020E4
:1029F000487B010834080020547B01088C08002023
:102A0000607B0108E40800206C7B01083C09002081
:102A1000787B010880B500AF054B1B7B1A46054B40
:102A20001B7B054905480BF05DFC00BF80BD00BF66
:102A3000B40600201C0700207C7B0108B80500209C
:102A400080B500AF054804F023F903461A4604494F
:102A500004480BF047FC00BF80BD00BFA409002064
:102A60008C7B0108B805002080B500AF02490348FF
:102A70000BF038FC00BF80BD387B0108B805002092
:102A800080B500AF024903480BF02CFC00BF80BDAD
:102A9000987B0108B8050020F0B591B00CAF214B30
:102AA0001B889E46204B1B889C46204B1B881A4641
:102AB0001F4B1B8819461F4B1B8818461E4B1B8833
:102AC0001C461E4B1B881D461D4B1B881E461D4B5E
:102AD0001B88FB601C4B1B88BB601C4B1B887B60EE
:102AE0001B4B1B883B601B4B1B880A933B6809935D
:102AF0007B680893BB680793FB680693059604956B
:102B00000394029001910092634672461249134861
:102B10000BF0E8FB124911480BF0E4FB00BF14373F
:102B2000BD46F0BDB40A0020E00A0020E60A0020FD
:102B3000BA0A0020B60A0020E40A0020BC0A0020DD
:102B4000B80A0020E20A0020E80A0020C00A00209B
:102B5000C20A0020BE0A0020407C0108B8050020FF
:102B60000C7D010880B500AF0AF040F903461A4613
:102B7000024903480BF0B6FB00BF80BD107D010881
:102B8000B805002080B500AF0D490E480BF0AAFB38
:102B9000FFF782FFFFF74AFEFFF7EEFDFFF750FF5A
:102BA000FFF738FFFFF74AFDFFF75EFFFFF716FE5E
:102BB000FFF702FEFFF7D6FFFFF762FF00BF80BD01
:102BC0001C7D0108B805002080B584B000AF786096
:102BD000786800F015F80346FB6007F10C0301214B
:102BE000184600F01FF80346BB6007F108031846BB
:102BF00000F030F8034618461037BD4680BD00BFD0
:102C000080B584B000AF78607B681A1D07F10C03B3
:102C10001146184600F02AF8FB6818461037BD46E2
:102C200080BD00BF80B584B000AF786039607B683C
:102C30001A683B685B421344FB6007F10C0207F122
:102C400008031146184600F011F8BB681846103703
:102C5000BD4680BD80B483B000AF78607B681B68E0
:102C600018460C37BD465DF8047B704780B483B0CE
:102C700000AF786039603B681A687B681A607B68CF
:102C800018460C37BD465DF8047B704780B584B0AC
:102C900000AF78600B46FB707B68103397F9032018
:102CA000114618460BF0E6F97B6800221A607B6833
:102CB00000225A607B6800229A607B6800221A73A7
:102CC0007B681033012118460BF0F6F97B6803F19D
:102CD0001000074BBB600023FB6007F108030CCB1F
:102CE000796800F047F87B6818461037BD4680BD0C
:102CF000F52C000880B483B000AF78607B681B6857
:102D00005A1C7B681A6000BF0C37BD465DF8047B17
:102D1000704700BF80B483B000AF78607B689A686A
:102D20007B685A607B681A687B689A607B689A68DF
:102D30007B685B689A420AD97B681B7B002B06D1B3
:102D40007B6801221A737B6800221A600CE07B68A2
:102D50009A687B685B689A4206D17B681B7B012B73
:102D600002D17B6800221A7300BF0C37BD465DF8A4
:102D7000047B704780B584B000AFF860B960394615
:102D800081E80C00FB6803F124003B460CCBB968DA
:102D900000F00CF8FB6814330122012118460AF0F8
:102DA0006DFD00BF1037BD4680BD00BF80B485B04B
:102DB00000AFF860B960394681E80C00FB68BA687A
:102DC0001A60FB6804331A463B4693E8030082E826
:102DD0000300FB68034A5A6100BF1437BD465DF823
:102DE000047B7047E92D000880B584B000AF78609F
:102DF00039607B68FB603B68BB60BB685B6803F065
:102E00000103002B02D1BB681B680AE0BB685B684A
:102E10005B101A46FB6813441B68BA6812681344B7
:102E20001B68BA68526852101146FA680A44104684
:102E300098471037BD4680BD80B582B000AF78603E
:102E400039607B681B785BB2B3F1FF3F04D1342259
:102E50000B490C480BF08AFA3B68002B05D07B68C5
:102E6000DB687A6852681A6005E07B68DB687A681C
:102E7000526812041A6000BF0837BD4680BD00BF0B
:102E8000507D0108D07D010880B582B000AF786028
:102E90000B46FB707B681A460023136053609360F7
:102EA000D3607B6897F90320114618460BF0AAFA05
:102EB0007B6818460837BD4680BD00BF80B582B02C
:102EC00000AF786039607B6839681846FFF7B4FF57
:102ED00000BF0837BD4680BD80B582B000AF7860C6
:102EE0007B68012118460AF069FB00BF0837BD4620
:102EF00080BD00BF80B582B000AF78607B680021E4
:102F000018460AF05BFB00BF0837BD4680BD00BF16
:102F100080B586B000AF78600B46FB707B6897F990
:102F20000320114618460BF0A5F87B68543397F937
:102F3000032011461846FFF7A7FF7B686433184645
:102F40000BF0EEF978680E4BBB600023FB6007F1D5
:102F500008030CCB796800F0A1F87868094B3B6155
:102F600000237B6107F110030CCB796800F0B2F805
:102F70007B682122DA677B6818461837BD4680BD1A
:102F8000892F0008C52F000880B582B000AF786097
:102F90007B68002283F874207B68012283F8752007
:102FA0007B68643318460BF0CBF97B6864331846B2
:102FB0000BF0D2F902467B689A6700BF0837BD461E
:102FC00080BD00BF80B582B000AF78607B68012211
:102FD00083F874207B68002283F875207B68643353
:102FE00018460BF0B9F902467B689B6FD21A7B68D2
:102FF0009A6700BF0837BD4680BD00BF80B582B06C
:1030000000AF78607B6854331846FFF765FF7B6834
:10301000543300211846FFF751FF03200BF02EFB1D
:103020007B68543301211846FFF748FF03200BF05B
:1030300025FB7B68543300211846FFF73FFF7B6870
:1030400054331846FFF756FF00BF0837BD4680BD12
:1030500080B483B000AF78607B6893F87430002B45
:1030600012D07B6893F87530B3F1FF3F0CD07B68CA
:103070009B6F7A68D26F02FB03F3074A82FB03124D
:103080009211DB17D31A01E04FF0FF3318460C37CB
:10309000BD465DF8047B7047D34D621080B584B0A7
:1030A00000AFF860B960394681E80C00FB6803F1B5
:1030B00024003B460CCBB96800F028F8FB681433B9
:1030C0000122012118460AF0D9FB00BF1037BD4686
:1030D00080BD00BF80B584B000AFF860B9603946EC
:1030E00081E80C00FB6803F13C003B460CCBB9685F
:1030F00000F00CF8FB6814330122022118460AF094
:10310000BDFB00BF1037BD4680BD00BF80B485B099
:1031100000AFF860B960394681E80C00FB68BA6816
:103120001A60FB6804331A463B4693E8030082E8C2
:103130000300FB68034A5A6100BF1437BD465DF8BF
:10314000047B70474931000880B584B000AF7860D7
:1031500039607B68FB603B68BB60BB685B6803F001
:103160000103002B02D1BB681B680AE0BB685B68E7
:103170005B101A46FB6813441B68BA681268134454
:103180001B68BA68526852101146FA680A44104621
:1031900098471037BD4680BD80B582B000AF7860DB
:1031A0007B6818460BF004F9064A7B681A607B6856
:1031B00018330021184600F039FA7B6818460837A2
:1031C000BD4680BDF087010880B584B000AFF860CF
:1031D000B9607A60D7ED017A9FED077A67EE877A5A
:1031E000FCEEE77A17EE902AB968F86800F006F866
:1031F00000BF1037BD4680BD0024744980B584B03F
:1032000000AFF860B9607A60FB681833B968184697
:1032100000F01AFA7968F8680AF0DEFF00BF10378C
:10322000BD4680BD80B582B000AF78600A4A7B6839
:103230001A6078680AF0C8FF7B6818460BF0CCF873
:103240000023002B02D078680BF047FD7B681846FE
:103250000837BD4680BD00BFF087010880B582B049
:1032600000AF78607868FFF7DDFF78680BF035FD18
:103270007B6818460837BD4680BD00BF00000000CF
:1032800090B585B002AF9E4B14221A709D4B002260
:103290001A709D4B01221A709C480BF0FBF99A4B57
:1032A00000221A709A4B38221A70954B1B78143BE7
:1032B0000A2BFAD801A252F823F000BFE932000825
:1032C00093330008E733000813340008393400084A
:1032D0004F3400085F340008AB3200086B3400083C
:1032E000C534000875350008FFF7BEF9894B3B600F
:1032F00000237B6044F6206300933B460CCB864959
:10330000864800F0B3F981480BF0C4F9042004F0BA
:1033100019FF412005F060F8122005F087F84FF4FE
:10332000AF71372005F0BCF878480BF0B3F906F020
:1033300053F82D2006F068F8322005F09DFD784BFB
:103340001B6818460EF064FD6BA3D3E900230EF052
:10335000D5FD03460C46184621460FF091F803466A
:103360001A4670497048FFF72FFF704A704971483C
:10337000FFF744FF704B01221A706C4A6F49704886
:10338000FFF73CFF5E4B1C221A7060480BF082F97D
:103390003AE15E480BF07EF9FFF77AF9694B1B784A
:1033A000002B00D1FAE7674B1B78002B00D0FAE71F
:1033B000644B1B78002B40F02681634B01221A706E
:1033C00062480BF067F95F4B1B78002B02D15F4816
:1033D0000BF060F95B4B1B78002B40F01481484BDD
:1033E00017221A700FE1FFF785F9564B1B78002B57
:1033F00003D146480BF04EF9F7E7524B1B78002BF0
:1034000000D0FAE73E4B1C221A7051480BF042F9EB
:10341000FAE0FFF783F9282005F02EFD4A4B002241
:103420001A70012006F0E0FD07F076F805F0F2FED4
:1034300036480BF02FF9E7E0FEF7FEFF02F0F4FE4E
:1034400032480BF027F92E4B19221A70DCE0FFF7F7
:1034500005F82D4B00221A7001F02CF9D4E0FFF78B
:103460000FF82A480BF016F9CEE0FFF72FF9FEF718
:10347000BFFF01220021374801F042FE364803F029
:1034800007FC03461A46354932480AF02BFF012251
:103490000921304801F034FE314B1B7B002B04D056
:1034A00030492C480AF01EFF03E02F4929480AF052
:1034B00019FFFFF789F8FFF765FB4FF07E500BF01F
:1034C000E9F8A1E02948FFF73DF9294B1B78002BCB
:1034D00000D1FAE7264B1B78012B00D1FAE71E48F2
:1034E00003F0D8FC1C4803F0FDFB054B1C221A70AE
:1034F00017480BF0CFF887E0FCA9F1D24D62503F9E
:10350000DE0A0020D60A0020DB0A0020CDCCCC3D0C
:10351000FC0A00200D4C00085C060020500400202E
:103520002C0200203D94000820040020A086010009
:10353000DD3F000880040020FF0A0020D940000879
:10354000B0040020D70A0020D50A00209A99993E9D
:10355000CDCC4C3ED0050020A4090020E87D010818
:103560001C070020EC7D0108F07D0108F87D0108B2
:10357000D30A0020254B01221A70254B01221A7014
:1035800024480BF087F806F0BDFE2348FFF7DAF871
:10359000642200215D2000F06DF905F03BFE1F481C
:1035A0000BF078F806F0AEFE1D48FFF7CBF864226A
:1035B00000215C2000F05EF905F02CFE17480BF0AE
:1035C00069F806F09FFE1748FFF7BCF86422002157
:1035D0005A2000F04FF905F01DFE10480BF05AF884
:1035E00006F090FE1048FFF7ADF8642200215B2042
:1035F00000F040F905F00EFE08480BF04BF80548C6
:103600000BF048F851E600BF4FE600BFD50A002096
:10361000DB0A002000004040047E01080000A040BA
:10362000107E01081C7E0108287E010880B582B04A
:1036300000AF786039603968786800F005F87B6819
:1036400018460837BD4680BD80B483B000AF7860AF
:1036500039607B683A681A607B6800225A6100BF53
:103660000C37BD465DF8047B704700BF80B584B061
:1036700000AFF860B960394681E80C00FB6803F1DF
:1036800018003B460CCBB96800F008F8B969F86837
:103690000AF0A2FD00BF1037BD4680BD80B485B0E2
:1036A00000AFF860B960394681E80C00FB68BA6881
:1036B0001A60FB6804331A463B4693E8030082E82D
:1036C0000300FB68034A5A6100BF1437BD465DF82A
:1036D000047B7047D936000880B584B000AF7860AD
:1036E00039607B68FB603B68BB60BB685B6803F06C
:1036F0000103002B02D1BB681B680AE0BB685B6852
:103700005B101A46FB6813441B68BA6812681344BE
:103710001B68BA68526852101146FA680A4410468B
:1037200098471037BD4680BD80B582B000AF786045
:1037300039607B68012B24D13B684FF6FF729342BE
:103740001FD11248FFF728FD114A12490F480BF00C
:10375000BFFA1148FFF720FD0D4A0E490E480BF045
:10376000B7FA0E48FFF718FD094A0A490B480BF053
:10377000AFFA0B48FFF710FD054A064908480BF061
:10378000A7FA00BF0837BD4680BD00BF2004002057
:10379000C4010020253200085004002080040020CD
:1037A000B004002080B500AF4FF6FF710120FFF795
:1037B000BBFF80BD80B500AF274B1A88274B1B8805
:1037C0009A4223D8264B1A88264B1B889A420ED938
:1037D000234B1B881A46204B1B885B009A4239DD1D
:1037E000962005F01DFC20480AF054FFF0E71D4B21
:1037F0001B881A46184B1B885B009A422ADD9620CC
:1038000005F02EFC18480AF045FFF0E7174B1A8820
:10381000174B1B889A420ED9144B1B881A460F4B24
:103820001B885B009A4215DD962005F019FC0E48B6
:103830000AF030FFF0E70E4B1B881A46074B1B8837
:103840005B009A4206DD962005F0EAFB06480AF086
:1038500021FFF0E700BF80BDB80A0020BC0A0020AD
:10386000B60A0020C20A0020CDCCCC3DBA0A002006
:10387000C00A002080B584B000AF03463A60FB71F7
:103880000B46BB71BB79002B40D1314803F000FAE5
:10389000B860FB795A3B032B19D801A252F823F0E8
:1038A000C9380008B9380008C1380008B138000824
:1038B0004FF46173FB600AE040F68C23FB6006E086
:1038C0004FF4E163FB6002E00023FB6000BFFA6895
:1038D000BB68D31AFB60FB6803F56163FB60FB68A0
:1038E0001C4A83FB02121A44D112DA178A1A4FF4C7
:1038F000616101FB02F29B1AFB60FB68B3F5E16FAB
:1039000002DA0123BB7101E00223BB71386801F0C8
:10391000BDFD114B1B78FA799A4210D0BB79012B6F
:1039200003D1822005F07CFB02E0822005F098FBA9
:103930000A480AF0AFFE386801F0A8FDE9E705F093
:1039400069FC07480AF0A6FE00BF1037BD4680BDDF
:10395000A4090020C5B3A291FD0A0020CDCCCC3D26
:10396000CDCC4C3E80B582B000AF03463A60FB71CF
:103970000B46BB71B979FB793A681846FFF77AFFB5
:10398000FFF718FF00BF0837BD4680BD80B582B085
:1039900000AF4FF4C87001F079FD184B1B78FB7134
:1039A00006F0B0FCFB795A3B032B23D801A252F856
:1039B00023F000BFC5390008E9390008D1390008F3
:1039C000DD390008642200215C20FFF7CBFF11E005
:1039D000642200215A20FFF7C5FF0BE0642200217A
:1039E0005B20FFF7BFFF05E0642200215D20FFF7A9
:1039F000B9FF00BF00BF0837BD4680BDFD0A0020EB
:103A000080B586B000AF0346FB716B4B1B78002B73
:103A100004D06A4B1B78002B40F0C980FEF7DEFC17
:103A2000664B1B78002B05D00123FB756448FEF71D
:103A300089FE04E00023FB756248FEF783FE05F073
:103A4000E9FB5D4B1B781A465C4B1B785E495F486F
:103A50000AF048FC05F0DEFB5D480AF01BFE00237F
:103A60003B613B69022B0DDC5A4B1B88082B09D9A3
:103A70000F2005F055FA56480AF00CFE3B69013359
:103A80003B61EEE7544B1B88092B24D85348FEF7C3
:103A900059FE05F0BFFB504B1B880E2B62D85048D7
:103AA000FEF750FEFB79012B0AD11E2005F05AFAD1
:103AB00047480AF0EFFD484B1B880E2BEBD8F4E784
:103AC0001E2005F071FA42480AF0E4FD424B1B88C3
:103AD0000E2BE0D8F4E74348FEF734FE05F09AFBDE
:103AE0004148FEF72FFEFB79012B0DD1FB7D002B0A
:103AF00018D01E2005F036FA35480AF0CBFD364BBB
:103B00001B880D2B0ED9F4E7FB7D002B0AD11E205C
:103B100005F04AFA2E480AF0BDFD2F4B1B880D2BED
:103B200000D9F4E72C4B1B880E2B1BD82C48FEF732
:103B300009FEFB79012B0AD11E2005F013FA244857
:103B40000AF0A8FD244B1B880E2BEBD8F4E71E20AF
:103B500005F02AFA1E480AF09DFD1F4B1B880E2B0C
:103B6000E0D8F4E72148FEF7EDFD0023FB60FB6899
:103B7000072B13DCFB79012B06D11E2005F0F2F98F
:103B800013480AF087FD05E01E2005F00DFA1048E5
:103B90000AF080FDFB680133FB60E8E71E2005F0BA
:103BA0009DF94FF07C500AF075FD05F033FB00BF26
:103BB0001837BD4680BD00BFD80A0020D90A0020B2
:103BC000347E01083C7E0108447E0108D0050020B7
:103BD000CDCCCC3DBE0A0020D00A0020547E010886
:103BE000607E0108707E01087C7E01088C7E0108E1
:103BF00080B584B000AF0346FB712A4B1B78002BC5
:103C000003D0294B1B78002B47D1FEF7E7FB254B50
:103C10001B781A46244B1B78244925480AF062FB7E
:103C200005F0F8FA23480AF035FD0023FB60FB6835
:103C3000022B0DDC204B1B88082B09D90F2005F027
:103C40006FF91C480AF026FDFB680133FB60EEE7C4
:103C500005F0E0FAFB79002B0AD1184B1A88184BB3
:103C60001B889A4202D90123FB7101E00223FB71F8
:103C7000FB79012B06D1782005F0D2F911480AF022
:103C800009FD05E0782005F0EBF90E480AF002FD89
:103C900005F0C0FA07480AF0FDFC00BF1037BD462A
:103CA00080BD00BFD80A0020D90A0020447E010848
:103CB000D0050020CDCCCC3DBE0A0020B80A0020A3
:103CC000BC0A00203333333F80B582B000AF2B4BAA
:103CD0001B78022B05D10123FB710120FFF790FE19
:103CE00004E00223FB710220FFF78AFEFB79012B1F
:103CF0001FD13C2001F074FF034683F00103DBB2C7
:103D0000002B0AD03C2001F0E7FE034683F00103BC
:103D1000DBB2002B01D0012300E00023002B28D0D0
:103D20000A2219210E2005F041FD15480AF0B2FCC7
:103D3000DFE73C2001F054FF034683F00103DBB2D0
:103D4000002B0AD03C2001F0C7FE034683F001039C
:103D5000DBB2002B01D0012300E00023002B08D0B0
:103D60000A2219210E2005F061FC05480AF092FC98
:103D7000DFE700BF0837BD4680BD00BFDD0A002079
:103D8000CDCCCC3D80B582B000AF00237B60194B19
:103D90001B881A467B6813447B60642005F060F939
:103DA00015480AF077FC05F035FA124B1B881A46C5
:103DB0007B6813447B60642005F032F90F480AF0F9
:103DC00069FC05F027FA0B4B1B881A467B681344E5
:103DD0007B607B680A4A82FB0312DB17D31A07EE6B
:103DE000903AF8EEE77A17EE903A18460837BD4653
:103DF00080BD00BFB40A0020CDCCCC3DCDCC4C3E24
:103E00005655555580B582B000AF786039607B68F3
:103E10001B785BB2B3F1FF3F04D134220B490C484D
:103E20000AF0A4FA3B68002B05D07B68DB687A684F
:103E300052681A6005E07B68DB687A685268120491
:103E40001A6000BF0837BD4680BD00BFA87E0108CC
:103E5000287F010880B582B000AF78607B681B784E
:103E60005BB2B3F1FF3F04D13E22094909480AF091
:103E70007DFA7B689B681A687B685B681340002B3F
:103E800001D0012300E0002318460837BD4680BD5D
:103E9000A87E0108287F010880B582B000AF786055
:103EA0000B46FB707B681A460023136053609360D7
:103EB000D3607B6897F90320114618460AF0A2FAEE
:103EC0007B6818460837BD4680BD00BF80B582B00C
:103ED00000AF78600B46FB701346BB707B681A46D8
:103EE0000023136053609360D3607B68BA7897F9BE
:103EF000031018460AF098FA7B6818460837BD4642
:103F000080BD00BF80B582B000AF78607B68184686
:103F1000FFF7A0FF034618460837BD4680BD00BF27
:103F200080B582B000AF78600B46FB707B681A46A4
:103F30000023136053609360D3607B6897F903207C
:103F4000114618460AF084FA7B6818460837BD46C1
:103F500080BD00BF80B582B000AF786039607B68FB
:103F600039681846FFF74EFF00BF0837BD4680BDD1
:103F700080B582B000AF78600B46FB707B6897F924
:103F800003201146184609F005FA7B6818460837E1
:103F9000BD4680BD80B582B000AF7860064A7B68C0
:103FA0001A600023002B02D078680AF096FE7B6826
:103FB00018460837BD4680BD487F010880B582B0ED
:103FC00000AF78607868FFF7E5FF78680AF085FE53
:103FD0007B6818460837BD4680BD00BF98B500AF66
:103FE0002E48FFF78FFF0346DAB22D4B1A702D488B
:103FF000FFF788FF0346DAB22B4B1A702B48FFF706
:1040000081FF0346DAB22A4B1A702A48FFF77AFF7B
:104010000346DAB2284B1A70284B1B781C462848F6
:10402000FEF7CEF903469C4214BF01230023DBB206
:10403000002B05D0214B1B7819462148FFF78AFF3A
:10404000204B1B781C462048FEF7BAF903469C42D9
:1040500014BF01230023DBB2002B05D0194B1B78C2
:1040600019461948FFF776FF184B1B781C4618486D
:10407000FEF7A6F903469C4214BF01230023DBB2DE
:10408000002B05D0114B1B7819461148FFF762FF32
:104090001048FEF73FFE00BF98BD00BFBC090020DE
:1040A000D30A0020DC090020D70A0020EC090020F8
:1040B000D80A0020FC090020D90A0020D50A0020D7
:1040C000AC090020D40A0020CC090020D60A002028
:1040D000940900201C07002080B500AF0748FEF7B8
:1040E0008DFF0648FEF7B4FF0346DA0F13445B105A
:1040F0009AB2034B1A8000BF80BD00BF340A002073
:10410000D00A002080B582B000AF78607B68184686
:1041100000F012F87B6818460837BD4680BD00BF26
:1041200080B582B000AF7860786800F043F87B68B3
:1041300018460837BD4680BD80B582B000AF7860B4
:104140007B68184600F020F87B6818460837BD46A3
:1041500080BD00BF80B582B000AF78607B68196811
:104160007B689B681A467B681B68D31A1A46786876
:1041700000F02CF87B681846FFF7D2FF7B681846E2
:104180000837BD4680BD00BF80B582B000AF786003
:10419000786800F02FF87B6800221A607B680022A4
:1041A0005A607B6800229A607B6818460837BD46D3
:1041B00080BD00BF80B582B000AF7860786800F045
:1041C00025F87B6818460837BD4680BD80B584B0A9
:1041D00000AFF860B9607A60BB68002B05D0FB685F
:1041E0007A68B968184600F01DF800BF1037BD4660
:1041F00080BD00BF80B582B000AF7860786800F005
:1042000021F87B6818460837BD4680BD80B483B06E
:1042100000AF78607B6818460C37BD465DF8047BBC
:10422000704700BF80B584B000AFF860B9607A60B5
:104230007A68B968F86800F011F800BF1037BD4619
:1042400080BD00BF80B483B000AF78607B68184643
:104250000C37BD465DF8047B704700BF80B584B065
:1042600000AFF860B9607A60B8680AF036FD00BF48
:104270001037BD4680BD00BF80B582B000AF78600A
:104280000E4A7B681A600E4A7B685A650D4A7B6845
:104290009A657B68543318460AF006F87B6818461E
:1042A000FFF778FE0023002B02D078680AF015FD96
:1042B0007B6818460837BD4680BD00BF908701085F
:1042C000A8870108DC870108A0F15400D4E700BFEB
:1042D000A0F15800D0E700BF80B582B000AF786091
:1042E0007868FFF7C9FF78680AF0F7FC7B68184622
:1042F0000837BD4680BD00BFA0F15400ECE700BF09
:10430000A0F15800E8E700BF80B582B000AF786048
:104310007B681846FFF7B0FF7B6818460837BD4634
:1043200080BD00BF80B582B000AF78600C4A7B686A
:104330001A600C4A7B685A607B683833184609F06B
:10434000E3FC7B68184609F0AFFF0023002B02D086
:1043500078680AF0C2FC7B6818460837BD4680BD05
:104360005C7F0108907F0108A0F10400DAE700BF3C
:1043700080B582B000AF78607868FFF7D3FF7868C7
:104380000AF0ABFC7B6818460837BD4680BD00BF0D
:10439000A0F10400ECE700BF80B582B000AF786008
:1043A0007B681033184609F02FFE7B6818460837E3
:1043B000BD4680BD80B582B000AF78607B6818468E
:1043C00009F022FE7B6818460837BD4680BD00BF55
:1043D00080B588B006AF786039607B68012B40F00B
:1043E000C5803B684FF6FF72934240F0BF800521C5
:1043F0006048FFF795FD604B0093012332222C218A
:104400005E4808F013FD5E4A5E495C480AF060FCB5
:104410000023032202215C4809F05EFE584A5B49F2
:1044200059480AF055FC002303930B2302930C23F5
:1044300001930A230093122313221C21544800F0F5
:104440008BFD4F4A534952480AF042FC1123049312
:104450002423039306230293202301932323009311
:104460002223212210214C4800F07EFB14214B48CE
:10447000FEF70CFC424A4A4948480AF029FC15213B
:104480004848FEF703FC3E4A454946480AF020FCEE
:10449000D02318221921444802F078FBD223182295
:1044A0001921424802F072FBD423182219214048F6
:1044B00002F06CFBD623182219213E4802F066FB5D
:1044C000D823182219213C4802F060FBDA23182275
:1044D00019213A4802F05AFB17213948FFF720FD0D
:1044E000C02318221921374802F0AAFB16213648AA
:1044F000FFF716FD01222D213448FFF7E7FC2721A5
:104500003348FFF70DFD08213248FFF7C5FC0122B3
:1045100029213148FFF7DAFC012205212F48FFF756
:10452000D5FC04212E48FFF723FD25212D48FFF758
:104530001FFD00212C48FFF71BFD07212B48FFF72B
:1045400017FD01212A48FFF713FD26212948FEF710
:10455000DFFC0B4A284927480AF0BAFB2748FFF737
:10456000D1FD074A264925480AF0B2FB00BF0837AB
:10457000BD4680BDE004002040420F00F004002052
:10458000C4010020094300086405002079420008A6
:10459000D0050020254300085C060020B40600205A
:1045A000994300081C07002084070020DC07002036
:1045B000340800208C080020E40800203C0900207A
:1045C00094090020A4090020AC090020BC090020A7
:1045D000CC090020DC090020EC090020FC090020A7
:1045E0000C0A0020140A00201C0A0020240A0020C3
:1045F0002C0A0020340A0020B5430008F00A0020ED
:1046000005460008B0B582B000AF78607B681C68D2
:104610007B685D687B68184600F010F803461A4610
:104620002946204600F016F87B681846FFF792FDF1
:104630007B6818460837BD46B0BD00BF80B483B064
:1046400000AF78607B6818460C37BD465DF8047B88
:10465000704700BF80B584B000AFF860B9607A6081
:10466000B968F86800F004F800BF1037BD4680BD97
:1046700080B582B000AF786039603968786800F042
:1046800005F800BF0837BD4680BD00BF80B483B0C9
:1046900000AF7860396000BF0C37BD465DF8047B21
:1046A000704700BF80B500AF4FF6FF710120FFF7E4
:1046B0008FFE80BD80B584B000AF192004F030FCBF
:1046C0004FF07E5009F0E6FF04F0A4FDFFF75EF91D
:1046D000002005F089FC04F09DFDBF48FEF774FA48
:1046E00003461B78473B0C2B00F2F38101A252F8E2
:1046F00023F000BF71480008D34A000811480008A1
:10470000D34A000829470008D34A0008294700086F
:10471000D34A0008B1470008D34A0008C948000836
:10472000D34A00081949000805F0ECFD00F03AFEF4
:10473000AA4B1B785C2B0AD11E2004F0F1FB4FF032
:104740007E5009F0A7FFFFF721F905F0F1FCA24820
:1047500000F0D8F903461B78473B0C2B00F2AE81E2
:1047600001A252F823F000BFA3470008BD4A000889
:104770009D470008BD4A0008BD4A0008BD4A000820
:10478000BD4A0008BD4A0008BD4A0008BD4A0008ED
:10479000A9470008BD4A0008A947000806F034F9F7
:1047A00005E006F06DF902E006F08CF900BF85E146
:1047B000894800F0A7F903461B78473B0C2B00F211
:1047C0007F8101A252F823F003480008C14A000883
:1047D000FD470008C14A0008C14A0008C14A000854
:1047E000C14A0008C14A0008C14A0008C14A00087D
:1047F00009480008C14A00080948000806F004F901
:1048000005E006F03DF902E006F06EF900BF57E161
:10481000714800F077F903461B78473B0C2B00F2F8
:10482000518101A252F823F063480008C54A0008EC
:10483000C54A0008C54A00085D480008C54A000886
:104840005D480008C54A00085D480008C54A0008E0
:1048500069480008C54A00086948000806F04AFB94
:1048600005E006F0C9FB02E006F018FC00BF29E1F4
:10487000594800F047F903461B78493B0A2B00F2E0
:10488000238101A252F823F0BB480008C94A00085E
:10489000B5480008C94A0008B5480008C94A0008D8
:1048A000B5480008C94A0008C1480008C94A0008BC
:1048B000C148000806F018FC05E006F061FC02E0C3
:1048C00006F0B4FC00BFFFE0434800F01BF90346CC
:1048D0001B78473B082B00F2F98001A252F823F025
:1048E00011490008CD4A00080B490008CD4A0008CC
:1048F00005490008CD4A000805490008CD4A0008CE
:104900000549000806F09EFC05E006F0CDFC02E03B
:1049100006F0F6FC00BFD9E00023FB6005F0F2FCD6
:10492000642200215C20FEF7A5FF2D4B1B880D2B78
:1049300006D91E2004F0D2FA2A4809F0ABFEF4E7AB
:1049400005F0E0FC642200215D20FFF70BF81E203B
:1049500004F02AFB234809F09DFE234B1B880D2BF6
:1049600000D8F4E7FEF726FF0023BB60BB68012BED
:104970000FDC642004F074FB1A4809F08BFE184B1E
:104980001B881A46FB681344FB60BB680133BB609D
:10499000ECE704F03FFCC82004F042FB114809F0AA
:1049A00079FE00237B607B68012B1FDC642004F010
:1049B00037FB0C4809F06EFE04F02CFC094809F0A6
:1049C00069FE074B1B881A46FB681344FB607B6833
:1049D00001337B60E7E700BFF00A0020FD0A0020FA
:1049E000B40A0020CDCCCC3DBC0A0020FB68002BD3
:1049F00000DA03339B10FB60012200213D4800F0E8
:104A00007FFBFA683C493B4809F06CFC04F002FC6F
:104A10004FF07C5009F03EFEFB68282B26DD37481E
:104A200000F070F803461B78473B082B50D801A2D2
:104A300052F823F0654A0008D14A00085F4A00088E
:104A4000D14A0008594A0008D14A0008594A0008CA
:104A5000D14A0008594A000806F060FC2DE006F033
:104A60009BFC2AE006F0CEFC00BF26E0234800F0C5
:104A700049F803461B78473B082B29D801A252F876
:104A800023F000BFB54A0008D14A0008AF4A000829
:104A9000D14A0008A94A0008D14A0008A94A0008DA
:104AA000D14A0008A94A000806F046FC05E006F0D5
:104AB00073FC02E006F0A6FC00BF09E000BF08E0BE
:104AC00000BF06E000BF04E000BF02E000BF00E05E
:104AD00000BF1E2004F002FA4FF0804009F0DAFD1A
:104AE00004F098FB064809F0D5FD00BF1037BD461D
:104AF00080BD00BFD0050020507F0108F00A0020D3
:104B000000007A4480B584B000AF7860786800F027
:104B10000DF80346FB6007F10C031846FEF79AF800
:104B2000034618461037BD4680BD00BF80B584B02F
:104B300000AF78607A6807F10C0311461846FEF75B
:104B400095F8FB6818461037BD4680BD80B582B029
:104B500000AF78607B68184608F09CFC0346184656
:104B60000837BD4680BD00BF80B582B000AF786019
:104B7000084611461A460346FB700B46BB701346A7
:104B80007B707B6897F9032011461846FFF7F0F910
:104B90007B68083397F9022011461846FFF7E8F9B9
:104BA0007B68103397F9012011461846FFF7E0F9AA
:104BB0007B68183397F9102011461846FFF7D8F98B
:104BC0007B68203397F9142011461846FFF7D0F977
:104BD0007B68283397F9182011461846FFF7C8F963
:104BE0007B68303397F91C2011461846FFF7C0F94F
:104BF0007B68383397F9202011461846FFF7B8F93B
:104C00007B6818460837BD4680BD00BF80B582B0BE
:104C100000AF7860904B1A88904B1A80904B1A889E
:104C2000904B1A80904B1A88904B1A80904B1A88A0
:104C3000904B1A807B681846FFF788FF03461A4698
:104C40007B68A3F840207B6808331846FFF77EFF97
:104C500003461A467B68A3F842207B681033184647
:104C6000FFF774FF03461A467B68A3F844207B686D
:104C700018331846FFF76AFF03461A467B68A3F805
:104C800046207B6820331846FFF760FF03461A462C
:104C90007B68A3F848207B6828331846FFF756FF47
:104CA00003461A467B68A3F84A207B6830331846CF
:104CB000FFF74CFF03461A467B68A3F84C207B683D
:104CC00038331846FFF742FF03461A467B68A3F8BD
:104CD0004E207B68B3F848301946786800F0F4F845
:104CE00007EE900AFDEEE77AC7ED007A3A885C4B52
:104CF0001A807B68B3F844301946786800F0E4F80D
:104D000007EE900AFDEEE77AC7ED007A3A88564B37
:104D10001A807B68B3F842301946786800F0D4F8FE
:104D200007EE900AFDEEE77AC7ED007A3A88504B1D
:104D30001A807B68B3F846301946786800F0C4F8EA
:104D400007EE900AFDEEE77AC7ED007A3A88424B0B
:104D50001A807B68B3F84A301946786800F0B4F8D6
:104D600007EE900AFDEEE77AC7ED007A3A88424BEB
:104D70001A807B68B3F84E301946786800F0A4F8C2
:104D800007EE900AFDEEE77AC7ED007A3A883B4BD2
:104D90001A807B68B3F84C301946786800F094F8B4
:104DA00007EE900AFDEEE77AC7ED007A3A88344BB9
:104DB0001A807B68B3F840301946786800F084F8B0
:104DC00007EE900AFDEEE77AC7ED007A3A882D4BA0
:104DD0001A8007F085FF2C4B1B78002B18D02A4B2C
:104DE0001B78072B14D8284B1B780133DAB2264BDB
:104DF0001A70254B1B78002B05D0244B1B78002BF9
:104E000001D0012300E000231A46214B1A701FE055
:104E10001D4B1B78072B18D91B4B1B780E2B14D856
:104E2000194B1B780133DAB2174B1A70164B1B78EB
:104E3000002B05D1154B1B78002B01D0012300E07E
:104E400000231A46124B1A7002E00F4B01221A700F
:104E500000BF0837BD4680BDB40A0020C40A002048
:104E6000BA0A0020CA0A0020BC0A0020CC0A00208E
:104E7000BE0A0020CE0A0020B60A0020B80A002090
:104E8000C20A0020C00A0020DA0A0020DB0A002043
:104E9000D40A002090B585B000AF0146C7E90023D1
:104EA0000B46FB81FB8918460CF0B2FFD7E90023C3
:104EB0000AF00AF903460C46184621461437BD4647
:104EC00090BD00BF0000000090B583B000AF7860D7
:104ED0000B467B80798815A3D3E900230846FFF7AA
:104EE000D9FF03460C461A46234612A1D1E9000118
:104EF0000DF02EF903460C46184621464FF00002ED
:104F0000094B0CF049FE03460C46184621460DF0AD
:104F1000B7FA02467B681A657B681B6D18460C372A
:104F2000BD4690BDAFF300800000F03F448B6CE7BE
:104F3000FBA9F33F00000000D012534180B582B0BE
:104F400000AF7860396039687868FFF703F87B68EC
:104F500018460837BD4680BD90B593B00EAF786057
:104F6000084611461A460346FB700B46BB701346B3
:104F70007B707B680021184609F074F9434A7B680E
:104F80001A60434A7B685A607B68183397F903209C
:104F900011461846FEF7C4FF7B68283397F90220B4
:104FA00011461846FEF7BCFF7B6803F1380097F9FD
:104FB000244097F9202097F901104FF0FF330C930C
:104FC0004FF0FF330B934FF0FF330A934FF0FF3353
:104FD00009934FF0FF3308934FF0FF3307934FF0DF
:104FE000FF3306934FF0FF3305934FF0FF330493E5
:104FF0004FF0FF3303934FF0FF3302934FF0FF3333
:10500000019397F928300093234608F09BFE7B68B4
:1050100097F82C2083F880207B68283301211846DC
:10502000FFF78CFF7B68183300211846FFF786FFD7
:10503000184809F02FFB0023FB60FB68022B0ADCF9
:105040000321786800F0E4F8134809F023FBFB68BB
:105050000133FB60F1E70221786800F0D9F80F48CE
:1050600009F018FB2821786800F010F90C21786805
:1050700000F00CF90621786800F008F9786800F073
:1050800029F87B6818461437BD4690BD5C7F01083F
:10509000907F01088FC2753C45F5D63AACC52738DC
:1050A00080B586B000AFF860B9607A603B607A681E
:1050B000B968F86800F012F978617969F86800F069
:1050C000E5F83968F86800F0F5F800BF1837BD4614
:1050D00080BD00BF80B582B000AF786001217868E4
:1050E00000F0D4F8054809F0D5FA002200217868CC
:1050F00000F006F800BF0837BD4680BD45F5D63A3A
:1051000080B485B000AFF860B9607A60FB68BA68B7
:10511000C3F88420FB687A68C3F8882000BF14377E
:10512000BD465DF8047B704790B583B000AF7860F2
:1051300039603B680A2B1DD17B680022C3F88420AC
:105140007B68D3F888305A1C7B68C3F888207B685A
:10515000D3F88840786800F013F903469C42ACBF4E
:1051600001230023DBB2002B40D07B680022C3F870
:1051700088203BE07B68D3F884107B68D3F88820D4
:105180003B687868FFF78CFF7B68D3F884305A1C43
:105190007B68C3F884207B68D3F88440786800F08B
:1051A000DBF803469C42ACBF01230023DBB2002B9B
:1051B0001CD07B680022C3F884207B68D3F8883039
:1051C0005A1C7B68C3F888207B68D3F888407868CD
:1051D00000F0D6F803469C42ACBF01230023DBB2AB
:1051E000002B03D07B680022C3F888203B68184658
:1051F0000C37BD4690BD00BF80B483B000AF78606F
:105200004FF0FF3318460C37BD465DF8047B7047FE
:1052100080B582B000AF786039607B6803F13802F6
:105220003B681B111946104608F02EFE164809F07F
:1052300031FA7B68283300211846FFF77FFE1248B9
:1052400009F028FA7B68283301211846FFF776FE1B
:105250007B6838333968184608F016FE0A4809F0AA
:1052600019FA7B68283300211846FFF767FE0648C5
:1052700009F010FA7B68283301211846FFF75EFE1B
:1052800000BF0837BD4680BDACC5273880B582B0A9
:1052900000AF786039607B68183300211846FFF74B
:1052A0004DFE39687868FFF7B3FF00BF0837BD4689
:1052B00080BD00BF80B582B000AF786039607B6888
:1052C000183301211846FFF739FE39687868FFF76F
:1052D0009FFF00BF0837BD4680BD00BF80B485B0CA
:1052E00000AFF860B9607A60FB6893F88030012BFA
:1052F0001CD0032B24D17B68032B17D801A252F8B2
:1053000023F000BF155300081B5300082153000869
:1053100027530008BB68803317E0BB68C03314E034
:10532000BB68943311E0BB68D4330EE07A6813464F
:105330009B001344DB0003F18002BB68134404E0CC
:105340007B6802339A01BB68134418461437BD4684
:105350005DF8047B704700BF80B483B000AF786015
:105360007B6893F88030023B012B01D8142300E0C6
:10537000102318460C37BD465DF8047B704700BF0C
:1053800080B483B000AF78607B6893F88030032BE3
:1053900001D1042300E0022318460C37BD465DF816
:1053A000047B704780B588B000AF04F0ABFF344891
:1053B00001F06EFC034603F5FA73324A83FB0212D6
:1053C0001A44D112DA178A1A4FF4616101FB02F212
:1053D0009B1AFB610023BB6100237B61FB69B3F572
:1053E000616F04DBFB69A3F60F63FB6106E0FB69F9
:1053F000002B03DAFB6903F60F63FB614FF4616373
:10540000BB617B6903F56173DA0F13445B103B6189
:1054100040F24653FB6040F6CA03BB60BB6903F62B
:105420008C23DA0F13445B107B60FA693B699A4264
:1054300007DDFA69FB689A4203DC134B5D221A70A0
:105440001AE0FA69FB689A4207DDFA69BB689A427A
:1054500003DC0D4B5C221A700EE0FA69BB689A42BD
:1054600007DDFA697B689A4203DC074B5B221A70FE
:1054700002E0054B5A221A7000BF2037BD4680BD9E
:10548000A4090020C5B3A291FD0A002080B586B012
:1054900000AF786000233B613C4801F0F9FB034614
:1054A00003F5FA733A4A83FB02121A44D112DA174F
:1054B0008A1A4FF4616101FB02F29A1A3B691344A4
:1054C0007B617B69B3F5616F04DB7B69A3F60F63D6
:1054D0007B6106E07B69002B03DA7B6903F60F63CF
:1054E0007B617B6803F561727B699A4209DD7B68A9
:1054F000C3F561727B699A4203DA264B5D221A700A
:105500003BE07B6803F68C227B699A420ADD7B686C
:10551000C3F528630C337A69934203DA1D4B5B228F
:105520001A702AE07B6803F5E1627B699A4209DD23
:105530007B68C3F5E1627B699A4203DA154B5C2212
:105540001A701AE00023FB607B69B3F5E16F03DD9D
:105550007B69A3F5616300E07B69BB60FA687B68E7
:105560001A44BB689A4208DDFA687B68D21ABB68A5
:105570009A4202DA074B5A221A70064B1A78064BE7
:105580001A7000BF1837BD4680BD00BFA4090020B7
:10559000C5B3A291FD0A0020FE0A002080B584B0A8
:1055A00000AF0023FB600023BB6006237B607B68A9
:1055B000082B11DC7B689BB21BB219460A4801F02C
:1055C00009FB0246FB681344FB60BB680133BB6008
:1055D0007B6801337B60EAE7FA68BB6892FBF3F310
:1055E00018461037BD4680BD8407002080B584B0C2
:1055F00000AF0023FB600023BB6006237B607B6859
:10560000082B11DC7B689BB21BB219460A4801F0DB
:10561000E1FA0246FB681344FB60BB680133BB60E0
:105620007B6801337B60EAE7FA68BB6892FBF3F3BF
:1056300018461037BD4680BD3408002080B582B0C2
:1056400000AFFFF7ABFF7860FFF7D0FF38607A68F4
:105650003B689A4201DD7B6800E03B6818460837EA
:10566000BD4680BD80B584B000AF0023FB60002341
:10567000BB6006237B607B68082B14DC7B689BB2D5
:1056800001339BB29BB21BB219460B4801F0A2FA40
:105690000246FB681344FB60BB680133BB607B6858
:1056A00001337B60E7E7FA68BB6892FBF3F31846C7
:1056B0001037BD4680BD00BF8C08002080B584B087
:1056C00000AF0023FB600023BB6006237B607B6888
:1056D000082B14DC7B689BB201339BB29BB21BB2DC
:1056E00019460B4801F076FA0246FB681344FB604A
:1056F000BB680133BB607B6801337B60E7E7FA6816
:10570000BB6892FBF3F318461037BD4680BD00BF5F
:10571000DC07002080B582B000AFFFF7A3FF786000
:10572000FFF7CCFF38607A683B689A4201DD7B68FE
:1057300000E03B6818460837BD4680BD80B584B0A0
:1057400000AF02212B4801F045FAF8600223BB604C
:10575000BB68052B21DCBB689BB201339BB29BB2BB
:105760001BB21946234801F035FA0246FB689A42FB
:10577000CCBF01230023DBB2002B0AD0BB689BB255
:1057800001339BB29BB21BB219461A4801F022FAB0
:10579000F860BB680133BB60DAE701237B607B689C
:1057A000052B21DC7B689BB201339BB29BB21BB201
:1057B0001946114801F00EFA0246FB689A42CCBF26
:1057C00001230023DBB2002B0AD07B689BB201339C
:1057D0009BB29BB21BB21946074801F0FBF9F86077
:1057E0007B6801337B60DAE7FB6818461037BD46FB
:1057F00080BD00BF840700203408002080B584B03D
:1058000000AF02212B4801F0E5F9F8600223BB60EC
:10581000BB68052B21DCBB689BB201339BB29BB2FA
:105820001BB21946234801F0D5F90246FB689A429B
:10583000CCBF01230023DBB2002B0AD0BB689BB294
:1058400001339BB29BB21BB219461A4801F0C2F950
:10585000F860BB680133BB60DAE702237B607B68DA
:10586000052B21DC7B689BB201339BB29BB21BB240
:105870001946114801F0AEF90246FB689A42CCBFC6
:1058800001230023DBB2002B0AD07B689BB20133DB
:105890009BB29BB21BB21946074801F09BF9F86016
:1058A0007B6801337B60DAE7FB6818461037BD463A
:1058B00080BD00BF8C080020DC07002080B586B0CA
:1058C00000AF0721524801F085F9786107233B6159
:1058D0003B69082B21DC3B699BB201339BB29BB235
:1058E0001BB219464A4801F075F902467B699A4293
:1058F000CCBF01230023DBB2002B0AD03B699BB253
:1059000001339BB29BB21BB21946414801F062F9C8
:1059100078613B6901333B61DAE70623FB60FB6892
:10592000082B21DCFB689BB201339BB29BB21BB2FC
:105930001946384801F04EF902467B699A42CCBFBD
:1059400001230023DBB2002B0AD0FB689BB201339A
:105950009BB29BB21BB219462E4801F03BF978610D
:10596000FB680133FB60DAE70623BB60BB68082BEA
:1059700021DCBB689BB201339BB29BB21BB21946C0
:10598000254801F027F902467B699A42CCBF0123E2
:105990000023DBB2002B0AD0BB689BB201339BB261
:1059A0009BB21BB219461C4801F014F97861BB6820
:1059B0000133BB60DAE706237B607B68082B21DCC0
:1059C0007B689BB201339BB29BB21BB21946134852
:1059D00001F000F902467B699A42CCBF0123002303
:1059E000DBB2002B0AD07B689BB201339BB29BB227
:1059F0001BB21946094801F0EDF878617B68013364
:105A00007B60DAE77B6918461837BD4680BD00BF6A
:105A100084070020DC070020340800208C080020C8
:105A200080B584B000AF78600023FB730123BB60B6
:105A3000BB68082B1ADCFB7B002B17D1BB689BB221
:105A400001339BB29BB21BB219460B4801F0C2F85E
:105A500002467B689A42CCBF01230023DAB2FB7B6B
:105A60001343FB73BB680133BB60E1E7FB7B184664
:105A70001037BD4680BD00BFE408002080B584B06B
:105A800000AF78600023FB730123BB60BB68082B69
:105A90001ADCFB7B002B17D1BB689BB201339BB296
:105AA0009BB21BB219460B4801F094F802467B6882
:105AB0009A42CCBF01230023DAB2FB7B1343FB7372
:105AC000BB680133BB60E1E7FB7B18461037BD467E
:105AD00080BD00BF3C09002080B584B000AF786075
